:1007AA00E490E68BF090E68AF02290E740F0E4903D
:1007BA00E68AF090E68B225391EF90E65D22850857
:1007CA000C85090D85100E85110F2285100C8511D7
:0807DA000D85080E85090F22B0
:0E09EB00E4FEEEC39F5004000E80F7000022D1
:100954007401A807088002C333D8FCFEF452B5E53D
:0B096400B05E60047F0180027F002273
:10096F007401A807088002C333D8FCFE42B5ED60BE
:0A097F0004EE42B022EEF452B02262
:100989007D017F0212096F7F051209EB1D7F02129B
:07099900096F7F050209EB65
:0A0A1000AD07E4FF12096F02098927
:0D04F3007F01120954AC07120989AF0422E1
:1007E200AB07AA06AF05120A10E4FF120A107C0D2D
:1007F200EBAE02A804088005CEC313CE13D8F95479
:1008020001FF120A101CC3EC6480948050E27F0541
:030812000209EBED
:100772008F35AC05E4FD7F0312096FAF047E0012D2
:1007820007E27B07AF3AAE39AD38AC37A8031207A0
:1007920040EF5401FF120A101BC3EB648094805097
:0807A200E37D017F0302096FF2
:100494008F35AB05E4F539F538F537F536FD7F03CF
:1004A40012096FAF037E000D1207E27B07AF39AE6E
:1004B40038AD37AC3678011207538F398E388D3703
:1004C4008C361204F3E5394FF539E538F538E5375C
:1004D400F537E536F5361BC3EB6480948050CE7D4A
:0F04E400017F0312096FAF39AE38AD37AC362246
:1008150090E6047480F0000000E490E61AF0000011
:100825000090E6047406F000000090E61A740CF0DF
:10083500000000E490E604F00000007D017F07025F
:02084500096F39
:1009DB0090E61A7404F0000000E4FD7F0702096F33
:10069C0090E6007412F0000000E490E618F0000000
:1006AC000090E619F000000090E61AF000000090AF
:1006BC00E61BF000000090E6017453F0000000907F
:1006CC00E60B7403F000000090E6127420F00000BA
:1006DC000090E613F000000090E61474E0F00000C7
:1006EC000090E6157460F0000000E490E609F0005C
:1006FC00000090E6247402F0000000E490E625F07F
:10070C0000000090E6047486F0000000E4F00000A5
:10071C00007D017F0312096F1D1F12096F0D7F06EB
:03072C0002096F50
:010A60002273
:1003970090E6BFE0FE90E6BEE07C002400F532EC7C
:1003A7003EF53190E6BBE0FE90E6BAE02400F53476
:1003B700EC3EF53390E6B9E06440702E90E7407468
:1003C700A0F0A3745DF0A374C0F07F04120954A3D6
:1003D700EFF07F05120954A3EFF07F07120954A32A
:1003E700EF1207B77406F002049290E6B9E0B44141
:1003F7001C90E6BBE0FF90E6BAE0FD12049490E79C
:10040700401207661207B87404F002049290E6B926
:10041700E064427038C3E5329404E531940050013A
:10042700221207AA90E6A0E020E1F990E740E0FC5D
:10043700A3E0FDA3E0FEA3E0F53A8E398D388C37B3
:1004470090E6BAE0FDA3E0FF120772803E90E6B99E
:10045700E0B444081207AA120815802F90E6B9E005
:10046700B445081207AA1209DB802090E6B9E0B468
:10047700460B1207AA1209DB12069C800E90E6B9FA
:0D048700E0B447051207AA8002D322C32269
:050A4600D20002069C35
:030A5300020A6034
:0205FE00D32206
:020A5600D322A9
:020A5800D322A7
:020A5A00D322A5
:020A5C00D322A3
:020A5E00D322A1
:040A4B0012039722D9
:080A360090E6BAE0F517D322A7
:080A3E0090E6BAE0F516D322A0
:090A2400E5171207B404F0D32217
:090A2D00E5161207B404F0D3220F
:10093800C0E0C083C08290E6B5E04401F0D2011265
:0C09480007C17401F0D082D083D0E032EF
:1009B500C0E0C083C0821207C17404F0D082D08326
:0309C500D0E0324D
:1009C800C0E0C083C0821207C17402F0D082D08315
:0309D800D0E0323A
:1008F400C0E0C083C08290E680E030E7051207C8FC
:1009040080031207D51207C17410F0D082D083D0AF
:02091400E032CF
:1009A000C0E0C083C082D2031207C17408F0D082B5
:0509B000D083D0E0320D
:10091600C0E0C083C08290E680E030E7051207C8D9
:1009260080031207D51207C17420F0D082D083D07D
:02093600E032AD
:010A61003262
:010A62003261
:010A63003260
:010A6400325F
:010A6500325E
:010A6600325D
:010A6700325C
:010A6800325B
:010A6900325A
:010A6A003259
:010A6B003258
:010A6C003257
:010A6D003256
:010A6E003255
:010A6F003254
:010A70003253
:010A71003252
:010A72003251
:010A73003250
:010A7400324F
:010A7500324E
:010A7600324D
:010A7700324C
:010A7800324B
:010A7900324A
:010A7A003249
:010A7B003248
:010A7C003247
:010A7D003246
:010A7E003245
:010A7F003244
:010A80003243
:010A81003242
:010A82003241
:010A83003240
:010A8400323F
:0A0A1A0000010202030304040505B5
:10084700EC4EFEED4F241AF582740A3EF583E493CD
:10085700FF3395E0FEEF24A1FFEE34E68F82F583A8
:100867002290E6BCE0547EFF7E00E0D394807C00BB
:01087700225E
:10023C00E4F52CF52BF52AF529C203C200C202C243
:10024C0001120A467E067F008E0A8F0B7512067508
:10025C00131275080675091C75100675114A75146C
:10026C0006751578EE54C0700302033D752D0075AC
:10027C002E808E2F8F30C3749A9FFF74069ECF24CE
:10028C0002CF3400FEE48F288E27F526F525F524C1
:10029C00F523F522F521AF28AE27AD26AC25AB24EE
:1002AC00AA23A922A821C312072F5033E5302524F5
:1002BC00F582E52F3523F583E0FFE52E2524F58225
:1002CC00E52D3523F583EFF0E5242401F524E43501
:1002DC0023F523E43522F522E43521F52180B78579
:1002EC002D0A852E0B74002480FF740634FFFEC388
:1002FC00E5139FF513E5129EF512C3E50D9FF50D61
:10030C00E50C9EF50CC3E50F9FF50FE50E9EF50E63
:10031C00C3E5099FF509E5089EF508C3E5119FF5AE
:10032C0011E5109EF510C3E5159FF515E5149EF526
:10033C0014D2E843D82090E668E04409F090E65CDB
:10034C00E0443DF0D2AF90E680E054F7F0538EF8E5
:10035C00C203120A53300105120080C2013003F2AD
:10036C001205FE50EDC2031208CF20001690E68253
:10037C00E030E704E020E1EF90E682E030E604E0D4
:0B038C0020E0E4120878120A5680C737
:0B0A050090E509E030E402C322D32298
:1000800090E6B9E0700302013F147003020193246B
:10009000FE70030201ED24FB7003020139147003AA
:1000A00002013314700302012714700302012D248E
:1000B000056003020228120A58400302023490E647
:1000C000BBE024FE602714603824FD601114602713
:1000D00024067050E50A90E6B3F0E50B803C120A66
:1000E00005503EE51290E6B3F0E513802DE50C9047
:1000F000E6B3F0E50D8023E50E90E6B3F0E50F8062
:100100001990E6BAE0FF1208A4AA06A9077B01EA43
:10011000494B600DEE90E6B3F0EF90E6B4F00202CA
:1001200034020223020223120A2D020234120A3E72
:10013000020234120A36020234120A240202341273
:100140000A5A400302023490E6B8E0247F60151496
:1001500060192402703AA200E43325E0FFA202E411
:10016000334F8018E490E740F0801612086840048E
:100170007D0180027D00120847E0540190E740F0C5
:10018000E4A3F090E68AF090E68B7402F002023469
:10019000020223120A5C400302023490E6B8E02413
:1001A000FE60162402600302023490E6BAE0B40155
:1001B00005C20002023402022390E6BAE0702C125B
:1001C000086840047D0180027D00120847E054FE6B
:1001D000F090E6BCE05480131313541FFFE0540F5B
:1001E0002F90E683F0E04420F080498036120A5ECA
:1001F000504290E6B8E024FE60192402702590E693
:10020000BAE0B40104D200802B90E6BAE064026048
:1002100023801012086840047D0180027D001208CE
:1002200047800D90E6A08008120A4B500790E6A088
:0C023000E04401F090E6A0E04480F022E1
:03003300020A4F6F
:040A4F0053D8EF3257
:03004300020500B3
:03005300020500A3
:10050000020938000209C8000209B5000209A0006A
:100510000208F40002091600020A6100020A6200E1
:10052000020A6300020A6400020A6500020A660009
:10053000020A6700020A6800020A6900020A6A00E9
:10054000020A6B00020A6200020A6C00020A6D00D5
:10055000020A6E00020A6F00020A7000020A7100AD
:10056000020A7200020A6200020A6200020A6200C3
:10057000020A7300020A7400020A7500020A760079
:10058000020A7700020A7800020A7900020A7A0059
:10059000020A7B00020A7C00020A7D00020A7E0039
:1005A000020A7F00020A8000020A8100020A820019
:0805B000020A8300020A840024
:1008780090E682E030E004E020E60B90E682E0308B
:10088800E119E030E71590E680E04401F07F147E3E
:0C089800001205B890E680E054FEF0224B
:0208A400A907A2
:1008A600AE14AF158F828E83A3E064037017AD017B
:1008B60019ED7001228F828E83E07C002FFDEC3EC5
:0808C600FEAF0580DFE4FEFF38
:0108CE002207
:1008CF0090E682E044C0F090E681F043870100009B
:0408DF0000000022F3
:1005B8008E318F3290E600E054187012E532240133
:1005C800FFE43531C313F531EF13F532801590E6AA
:1005D80000E05418FFBF100BE53225E0F532E53195
:1005E80033F531E5321532AE31700215314E600502
:0605F8001208E380EE2270
:1008E3007400F58690FDA57C05A3E582458370F928
:0108F30022E2
:100600001201000200000040B404041000000102C6
:1006100000010A06000200000040010009022E004D
:1006200001010080320904000004FF0000000705FA
:10063000020200020007050402000200070586020C
:100640000002000705880200020009022E000101D5
:100650000080320904000004FF00000007050202C8
:100660004000000705040240000007058602400024
:10067000000705880240000004030904100343003A
:100680007900700072006500730073000E0345006E
:0C0690005A002D005500530042000000ED
:030000000209F9F9
:0C09F900787FE4F6D8FD75813A02023CDC
:10072F00EB9FF5F0EA9E42F0E99D42F0E89C45F020
:01073F002297
:10074000E8600FECC313FCED13FDEE13FEEF13FF97
:03075000D8F122BB
:10075300E8600FEFC333FFEE33FEED33FDEC33FC04
:03076300D8F122A8
:0C076600ECF0A3EDF0A3EEF0A3EFF02206
:00000001FF
